:020000041000EA
:1000000000B5324B212058609868022188439860DF
:10001000D860186158612E4B002199600221596106
:100020000121F02299502B49196001219960352056
:1000300000F044F80222904214D00621196600F024
:1000400034F8196E01211966002018661A6600F04E
:100050002CF8196E196E196E052000F02FF8012189
:100060000842F9D1002199601B49196000215960AB
:100070001A491B48016001219960EB211966A021F2
:10008000196600F012F800219960164914480160C1
:100090000121996001BC002800D000471248134993
:1000A000086003C880F30888084703B5996A0420EC
:1000B0000142FBD001200142F8D103BD02B5186610
:1000C0001866FFF7F2FF186E186E02BD00000240BE
:1000D000000000180000070000035F00212200005C
:1000E000F4000018222000A00001001008ED00E03C
:1000F00000000000000000000000000074B24E7A12
:1001000000200420F7010010C3010010C5010010F9
:10011000C1010010C1010010C1010010C101001097
:10012000C1010010C1010010C1010010C701001081
:10013000C1010010C1010010C9010010CB01001065
:10014000CD010010CD010010CD010010CD01001037
:10015000CD010010CD010010CD010010CD01001027
:10016000CD010010CD010010CD010010CD01001017
:10017000CD010010CD010010CD010010CD01001007
:10018000CD010010CD010010CD010010CD010010F7
:10019000CD010010CD010010CD010010CD010010E7
:1001A000CD010010CD010010CD010010CD010010D7
:1001B000CD010010CD010010CD010010CD010010C7
:1001C00000BE00BE00BE00BE00BE00BE00F04BF888
:1001D000103800BEF2EB8871B4420010D842001013
:1001E0003402001090A31AE700202149086006C8D5
:1001F00081F3088810471F48006800282FD10DA4FC
:100200000ECC002902D000F012F8F9E71A491B4A77
:10021000002000E001C19142FCD1194988471949E9
:1002200088471949884700BEFDE701C901C29A42C3
:10023000FBD37047D8420010C000002038030020D4
:10024000504500100000042000000420504500101C
:1002500000100420001004200000000070470B482C
:1002600001F06EFC0047EFF30580C0B2704700005C
:1002700008ED00E0000000D038030020840F0020CB
:100280001D130010990300100914001057560000A8
:1002900006005250ABB3605390400010060052501D
:1002A000861C0302A0400010060052505422A29D5A
:1002B000A440001005005250DE65F468504500105F
:1002C000F8B5C0460448054B10B5834203D0044B33
:1002D000002B00D0984710BD3803002038030020C1
:1002E0000000000006480749091A8B10C90FC918F9
:1002F00010B5491003D0044B002B00D0984710BD17
:1003000038030020380300200000000010B5074C1F
:100310002378002B09D1FFF7D5FF054B002B02D026
:10032000044800E000BF0123237010BD3804002002
:1003300000000000383F0010054B10B5002B03D023
:100340000449054800E000BFFFF7CCFF10BDC046E0
:10035000000000003C040020383F001000487047B7
:10036000643F001000487047383F0010031E04D05F
:100370000020012B00D1024870470248FCE7C0462C
:100380000C4000100840001000487047783F0010F3
:10039000002070477047C046F0B5C64600B582B031
:1003A00003F056FD03F092FC01239846304C314D8A
:1003B000314E02F08DFC00F0BFFC2768002924D0EC
:1003C000FA220023920001F02FFCC01B0928F0D96B
:1003D0003B000A33236002F005FC002823D10020F3
:1003E00003F0E6FA0028E4D001222B7853402B706A
:1003F00025D13378002B33D10023337002F068FC11
:1004000000F09AFC27680029DAD1FA21890001F06E
:10041000C5FBC01B0928CCD93B000A33236002F07E
:10042000E1FB0028DBD002F0E5FB002003F0C0FA7E
:100430000028BED001222B7853402B70D9D06A46B9
:100440000023009393800D4B01211380062300208D
:1004500093706B46002203F0C7FA43463370A8E757
:10046000002300220121002003F0BEFAC4E7C046A9
:100470009C0C0020BB0C0020B80C002004050000E0
:1004800010B501F0FDFF10BD094A830094464022DB
:10049000634410B51C68C0006240C0241440802230
:1004A000520113431C60034B9C466044416010BDE5
:1004B00004C00140004001400123D02283401206C5
:1004C00093629361094A8300944640226344196809
:1004D000C0004A40C02111408022520113431960DC
:1004E000034B9C46052360444360704704C00140B1
:1004F00000400140F8B5CE464746914680B5EFF33F
:10050000108772B6124E3368002BFCD0BFF35F8F9A
:10051000CB08C55C0724C218280001230C40944670
:10052000E0401A000240904603420DD1A3406246CB
:100530002B431370BFF35F8F4346336087F31088FC
:100540000CBC90469946F8BD484600F05FFFC04697
:100550002C0100D0F8B54746CE46884680B5EFF36B
:10056000108C72B6214D2C68002CFCD0BFF35F8F2D
:100570009A422DD8D408055D071907242E0014408F
:10058000E640F1071ED507218946063908E0D40860
:10059000055D07194C462E001440E640314211D04B
:1005A00001329342F3D201204042BFF35F8F002219
:1005B0000E4B1A608CF31088002811DB0CBC90469F
:1005C0009946F8BD0123A3401D4310003D70ECE7A0
:1005D000BFF35F8F00232B608CF310880120404213
:1005E0004346002BEAD0089800F010FF2C0100D001
:1005F0000021044B044ABFF35F8F02C39342FAD138
:100600007047C046000100D0800100D0044A107835
:10061000431CDBB2172B00D9102313707047C04660
:100620004802002000B5054B83B00100009318225A
:100630001F230348FFF78EFF03B000BD1C400010CE
:1006400090050020024B18688007C00F7047C04615
:1006500000C00640F8B5040006200D0001F064F863
:10066000002845D02B4B2C49E3185A425341802295
:10067000D20394465B421340284A63441360284ADD
:10068000136018008A689043FBD1224B8021E31845
:100690005A425341234A5B0049000620995201F017
:1006A00043F82900C00001F079FAC30921D140279D
:1006B0000122260080256262A36200232C36AD0150
:1006C00035432B60062001F02FF83900800001F03F
:1006D00065FA6023E26A53406E221A4080235B0170
:1006E00033431A60104B236310232B600D3BA3642C
:1006F000F8BD0E4A934203D900230D4F0D4AD8E7A7
:100700007F221040013040089F011A003F1803006B
:10071000CFE7C0460080FCBF00C0004000E00040C2
:1007200000F00040BC0C002001030000FEFF0000B0
:10073000C0FF3F00FFFF000083680B4810B58446F0
:1007400061446244090112019A18591854684B68AF
:1007500001209C4201D802D00020C0B210BD126816
:100760000B689A42F9D8F7E7FFFFFF0F40BF002060
:1007700000217047F8B5574645464E46DE46E0B57F
:1007800099460CAB19780DAB1B78050090469A463C
:100790000768002912D1BE7B002E45D074003B684B
:1007A000A419033C1B195A783100BA73002A00D1EE
:1007B000FA7300229A705A701A7003E00E004C000F
:1007C0006418033C2C4B00229C46AB6861449C4659
:1007D0004346090161440B604B464B600A9B8B60AA
:1007E0000B9BCB603B681B199A705A701A707B7B0D
:1007F0009B46002B2CD032005946B8687B6898473E
:100800003A68002817D05B4658465B005B441419D1
:10081000033BA070D118D35C002B00D063705B4603
:100820000E707B73B34514D030003CBC90469946A3
:10083000A246AB46F8BD5B465B005B44033BD31866
:100840009E701119125D002A00D05A705B460B7021
:100850007E7342464B46287D00F0BEFA041E06D049
:100860005346002B03D13100286800F019FD0E9B80
:10087000002BD9D01C70D7E7FFFFFF0FF0B5DE4685
:1008800057464E4645460023E0B58DB00A93654B6A
:100890008200D45800239B460B90079400F04CFA3A
:1008A000079C02000B006068EFF3108A72B60168C3
:1008B0000029FCD00794BFF35F8F2068457B002D93
:1008C00064D0A4685849A146691809018944494679
:1008D0000E684F68B61A9F41002F5EDD4B460B989D
:1008E0001A685B6800F078FA002300260027994612
:1008F0009846079C6368BFF35F8F5A461A608AF375
:1009000010884346002B08D10028C7D10DB03CBC4D
:1009100090469946A246AB46F0BD0A9B494618024E
:100920002843C047089009916268EFF3108A72B6B5
:100930001368002BFCD00794BFF35F8F0899099AC6
:10094000002A44DB114303D0079B1B69002B59D1BC
:10095000079B1B68DA7B002A06D051008A181968A9
:100960008C466244033A5570DD73079B013DDA689B
:10097000535D013353555B46079A13615368BFF3C8
:100980005F8F5A461A608AF3108887E70023002693
:100990000027994698460020ABE7002F01D1002E92
:1009A0009CD1002100F0DEFB4B461E685F689B680F
:1009B000079A98464B46DB689946D3685B19013B1A
:1009C0001B780A931B0203431361002091E72369FC
:1009D000002BBDD033003C005B1A94411A00230069
:1009E000A74219D901225242D31759460491012135
:1009F0000391494601914146079802950091FFF7FE
:100A0000B9FEB8E700F098F9089A099B06000F00B4
:100A100092197B419942E5D89F42E6D19642E4D9AA
:100A2000E0E7C0468C0C0020FFFFFF0F10B5104C14
:100A30006368002B00D010BD23000E4A10212068EF
:100A400000F0AEFA032000F06BF9032000F032FA58
:100A50000320094900F07AF9FFF7D8FD074B9C46BF
:100A6000032360442375064B80006060DC60E2E78E
:100A70004C020020390700107D08001040000034AF
:100A80008C0C002070B542680400EFF3108572B63C
:100A90001368002BFCD0BFF35F8F2068CAB2437B82
:100AA00093420AD0FF230B405E00F3180668B44659
:100AB0006344033B9B78002B13D0E668FF23B446C6
:100AC0000B406344013B090A1E78C9B28E420DD027
:100AD00000206368BFF35F8F00221A6085F31088DF
:100AE00070BD22698A42F3D12361F1E7110000F061
:100AF000D7FBEEE7F0B557464E46DE464546E0B535
:100B0000554C83B081460F00019000916368EFF36C
:100B1000108A72B61A68002AFCD0BFF35F8F26686D
:100B2000B57B002D42D06B005B19033B98463368C0
:100B300043441A005B78B373002B00D1F373002396
:100B4000937053701370A168444A8C464946AA18A2
:100B500012016244116042495760D360916032686B
:100B60004244937053701370737B9B46002B45D0A7
:100B70002A001900B06873689847326800282ED0A0
:100B80005B465B005B44033BD1188C4641465846AC
:100B900051188870D35C002B00D04B7063461D70D9
:100BA0005B4673735D452AD0002633E06368BFF36C
:100BB0005F8F1D608AF310882A4B009A596A0026BD
:100BC0008A4204D89B6A019A013693423FD330008F
:100BD00003B03CBC90469946A246AB46F0BD4346A6
:100BE000D1185B4640465B005B44033BD3189D70C5
:100BF000125C002A00D05A705B460B7075734A462F
:100C00003B00207D00F0E8F8061ECDD029002068CA
:100C100000F046FBE3685B19013B19786368BFF39A
:100C20005F8F00221A608AF31088002EC4D120BF83
:100C3000090229432000FFF725FF0A4B009A596A51
:100C40008A42C4D89B6A019A01269342BFD2791A7C
:100C50004F1EB941CEB2BAE74C020020FFFFFF0F92
:100C60006D07001000400540F0B5D6464F46464699
:100C7000C0B5EFF305833F22134018001038EFF39F
:100C8000108C72B6204D2A68002AFCD0BFF35F8F0B
:100C90000122110081401D4C884661631C491700E8
:100CA0000E788A463100C1400F400A4215D01949DA
:100CB0008200646A51588C4219D3174BD25843466C
:100CC0009E4353461E70BFF35F8F00232B608CF34F
:100CD0001088002A06D0904704E0BFF35F8F2F6092
:100CE0008CF310881CBC90469946A246F0BD0B4A76
:100CF0009B00904643441A681A60BFF35F8F00233D
:100D00002B608CF31088EDE7280100D000400540EF
:100D1000BA0C0020A00C002080050020D03F054028
:100D200010B50100024A0348FFF7E4FB10BDC046BE
:100D300038400010B70C0020034B596A0A00986A2B
:100D4000596A8A42FAD170470040054070B50400E4
:100D50000D00EFF3108672B61A4A1368002BFCD010
:100D6000BFF35F8F002D1BD0200000F03BFD164924
:100D700081420AD0200000F03DFD0121200000F05A
:100D80001FFD0123A340114A1360114BA400E5503D
:100D9000BFF35F8F00220B4B1A6086F3108870BD83
:100DA0000B4BA200D5500122A2400A4920000B782B
:100DB00093430B70044900F047FD0021200000F030
:100DC000FFFCE5E7280100D0690C00103860054001
:100DD00080050020BA0C0020F0B5DE4657464E468E
:100DE0004546E0B52F4C83B0616A0D00A66A616A82
:100DF000A942FAD194461D008B420AD807D001209F
:100E000003B03CBC90469946A246AB46F0BDB24208
:100E1000F5D9EFF3108972B6234C21680029FCD074
:100E2000BFF35F8F01248440E6B2B0461D491F4ED8
:100E30004C63B346367801964646019F3E435F4673
:100E40003E70061DB6007250194A800083500B6A2E
:100E5000002023420CD00A004B6A1900906A536AA2
:100E60008B42FAD19D4202D80AD1844508D900208C
:100E7000BFF35F8F00220C4B1A6089F31088BFE725
:100E8000084B019F1C625C6343469F435B46012005
:100E90001F70BFF35F8F0022034B1A6089F3108825
:100EA000AEE7C04600400540280100D0BA0C002043
:100EB000A00C002010B5EFF3108472B60A490B683D
:100EC000002BFCD0BFF35F8F01238340074A084803
:100ED000136202789A430270BFF35F8F00230B60A6
:100EE00084F3108810BDC046280100D000400540A2
:100EF000BA0C0020024B9C46614489000160704797
:100F00004000003410B50400FFF780FB0100200012
:100F1000FFF7F0FFFF232371BFF35F8F10BDC046C3
:100F200010B504000120FFF77DFB01002000FFF752
:100F3000E1FFBFF35F8F10BD70B505000E00140018
:100F4000002924D0002A24D080686B68984729683B
:100F500000280ED063001B197200033B9219CB18B6
:100F6000033A9E7088188A5C002A14D104703000FD
:100F70000EE073009B196200033B1219CB18033A71
:100F80009C7088188A5C002A00D05A700670200075
:100F900070BD0800FCE75A7004703000F8E7C046E6
:100FA00030B583600023CCB24373013304734260D5
:100FB0008373C4730D000068012C06D9421C0133F1
:100FC000DBB2137003329C42F9D1FF2129404B0060
:100FD0005918002340180338437030BDF8B5CE4689
:100FE000474606000C0080B5002907D04D00036875
:100FF0006D18033D5A195778002F04D120000CBCFE
:1010000090469946F8BD7900C9190339884643448A
:101010005978894600215970517073683A0021004F
:10102000806898473368002814D042469A18947014
:1010300059195B5D002B00D053700F702700494693
:101040003000FFF7CBFF390002003000FFF774FFDC
:101050000400D3E7424641465D19AF709A185B5CC5
:10106000002B00D06B701470E9E7C046F0B557460E
:101070004546DE464E46E0B50D006B0001685B1943
:10108000DF1E0400C85D83B00192CA1900284CD04D
:1010900043001B18033BCB185E78B446002E16D1D4
:1010A000019E002E3ED0E67B002E04D073009B19DB
:1010B000CB18033B5D70E57300282FD100235370DC
:1010C00003B03CBC90469946A246AB46F0BD7200C8
:1010D0006244033A89184A78904600224A70914641
:1010E0005A70010032002000FFF726FF4346824677
:1010F000002B07D05B0021684344033BCB185A7890
:10110000002A16D1424651462000FFF715FF2168FC
:10111000019BCA19002BC6D10028CFD043001B1851
:10112000033BCB1800219970C8E7019B002BBAD173
:10113000C4E75000801803380918487883464846A9
:101140004870587041462000FFF7F6FE5946804629
:101150002000FFF743FF414602002000FFF7ECFEAE
:101160008046CFE7F0B54E464546DE465746E0B5E9
:10117000467B040075000068AD19033D83B0019102
:10118000415D421900294ED04B005B18033BC31848
:101190005F78BC46002F18D1019D002D40D0E57B23
:1011A000002D04D06B005B19C318033B5E70E6731F
:1011B000002931D1002330005370617303B03CBC6F
:1011C00090469946A246AB46F0BD7A006244033A87
:1011D0008018427893460022427091465A7020004F
:1011E0003A00FFF7A9FE5B468046002B07D05B0064
:1011F00021685B44033BCB185A78002A17D15A4622
:1012000041462000FFF798FE019B0100206842192B
:10121000002BC4D10029CDD04B005B18033BC31871
:1012200000209870C6E7019B002BB8D1C2E75000A0
:101230008018033809184878824648464870587024
:1012400059462000FFF778FE53468346002B07D00F
:101250005B0021685344033BCB185A78002A06D11F
:10126000594652462000FFF767FE8346C7E7500005
:1012700080180338091848464F784870587051460E
:101280002000FFF759FE390081462000FFF7A6FE37
:10129000494602002000FFF74FFE8246E0E7C046C5
:1012A00070B5040000292CD0437B8B422ED00568FA
:1012B00048004018033828188278002A21D05300AB
:1012C0009B18033BEA5CEE188A4202D11BE0002A1D
:1012D00008D053009B18033BEB185A788A42F6D18A
:1012E00042785A7000230122837043702000FFF778
:1012F000BDFE617B02002000FFF71EFE607301202F
:1013000000E0002070BD43783370EBE70122190044
:10131000FFF7ACFE60730120F4E7C0462B4B2C4A6C
:1013200070B51A602B4A2C4B2C491A6010008B6840
:101330009843FBD12A4C2B4B9C4209D2013B1D1BED
:10134000AD080135AD002D1908CC9847AC42FBD152
:1013500000F07AF8244A204B1A60204A9368DB0197
:101360008033FBD14022214B214C9A675A671A6780
:10137000DA66204B9C420BD2013B1D1BED08013568
:10138000ED002D1920000834FFF7BCFDAC42F9D167
:10139000194C1A4DA168C022280000F01DFFA5605D
:1013A000FFF726F900F088FBFFF740FB144C154BC4
:1013B0009C4209D2013B1D1BAD080135AD002D1922
:1013C00008CC9847A542FBD170BDC04600E0004064
:1013D000BFCDFFFFFE7F3C0000F0004000C000409A
:1013E0002403002034030020FFFFFF0100F0014030
:1013F0001C0300202403002000ED00E0000000207A
:10140000340300203803002000BEFDE70FB400B510
:10141000084883B000F0B6FF049B002B07D005A955
:101420001800019100F06CFB034800F0ABFF00BE18
:10143000FDE7C0465C4000104041001010B5014877
:10144000FFF7E4FF6C40001030B50C2083B000F0D3
:1014500071F9FFF7F7F800280ED09A4B9A4A1A60F4
:101460005A609A60DA601A615A619A61DA611A62A6
:10147000964A5A6203B030BD954CA06700F062F9FD
:101480000122944B1A60636C012BFCD10322924B16
:101490001A608F4A936B012BFCD1C0228F4B9201B3
:1014A0001A608F4B8F491A6010008B689843031E97
:1014B000FAD1022401218C4A8C480633009400F0B2
:1014C00055F905238A4A01218A48009400F04EF913
:1014D000894B5A68FF2A02D8802252005A60802223
:1014E000784C7D4B21691201834D1A60002905D08B
:1014F000606900F053FB01300138FDD1E0217E4BE3
:1015000002201A681140802252012A431160196892
:10151000484003210140116004219A681142FCD027
:101520008022802192012A43090111608022520009
:101530005A60724B2361724B5968FF2900D85A6078
:1015400003226F48634B01211A600200936819421D
:10155000FCD0E02513681D4080235B0103431D6020
:1015600012684A400321114019600221644A9368BD
:101570001942FCD0802380219B010343090119609B
:101580008021604B4900516063615F4B5A68FF2ABC
:1015900000D8596080225D4BE16912015A4D1A60F2
:1015A000002905D0606900F0F9FA01300138FDD159
:1015B000E02255490B681A4080235B012B431A60D7
:1015C000802380229B012B4312011A6080223E4B14
:1015D00052004A60E3614E4B5968FF2900D85A60B7
:1015E00080224C4B216A1201494D1A60002905D016
:1015F000606900F0D3FA01300138FDD1E02244499E
:101600000B681A4080235B012B431A6080238022E1
:101610009B012B4312011A60802380225B004B60E8
:10162000294BD20223623C4B5968914200D25A6046
:1016300080223A4B616A1201374D1A60002905D0A9
:10164000606900F0ABFA01300138FDD1E022324987
:101650000B681A4080235B012B431A608023802291
:101660009B012B4312011A608023DB024B60174B56
:1016700063622B4B5A68FF2A02D8802252005A60BC
:101680008022284BA1691201254D1A60002905D03E
:10169000606900F083FA01300138FDD1E022204971
:1016A0000B681A4080235B012B431A608023802241
:1016B0009B012B4312011A6080235B004B60114B8E
:1016C000A361D7E694050020006CDC021BB7000084
:1016D000008000403CB0004030B0004000E00040DE
:1016E00000F0004000C00040002F68590080024018
:1016F00000389C1C00C0024030800040001BB70036
:101700003C800040405973075480004054B0004072
:101710006080004060B000406C8000406CB00040D1
:101720004880004048B00040014B8000C0587047DE
:10173000940500208023024A9B000343D362704734
:1017400000800540AA23064A1B0113602F23054988
:10175000D360054B19605368002BFCDA7047C04614
:101760000040024000B0FA0000600240F8B51E00E0
:1017700001235B42436000230400836001600C206E
:10178000170000F00BFA4101091A8D01691AC9000E
:1017900009188901380000F001FAC021231D8901D0
:1017A00019432123A0600B602268002AFCDA069B03
:1017B00036041B031E430823E6600B60F8BDC046D9
:1017C00001238340002904D0034A1360034A1360B5
:1017D0007047034A1360FBE780E200E000E100E0AD
:1017E00080E100E0024B10309B688000C0587047D9
:1017F00000ED00E070B50D00EFF3108672B60F4AF1
:101800001368002BFCD0BFF35F8F0D4B10309B682B
:1018100084001B590B4A934203D09D4201D0FFF72D
:101820000DFE074B9B681D51BFF35F8FBFF35F8FAA
:101830000022024B1A6086F3108870BD240100D08C
:1018400000ED00E0CD010010F0B5DE4657464E46F3
:101850004546E0B50C0083B0EFF3108A72B65B4AE0
:101860001368002BFCD0BFF35F8F10229146814498
:101870004A46574B96009B689D59564B98469D4249
:1018800005D0A54216D0544FEB1B2F2B14D9504B2B
:101890009B689D51BFF35F8FBFF35F8F00224B4B5F
:1018A0001A608AF3108803B03CBC90469946A24661
:1018B000AB46F0BD1D00EAE7012383409B465A4634
:1018C000464B1B681A4000925A46454B1A60BFF3BC
:1018D0005F8FFEF7C8FC0190002803D0814501D03E
:1018E000FFF7ACFD01232A009A431300DB1B5B4189
:1018F00042495943090D93689C4208D15BE043007B
:101900001B189B00FB189868A04211D01A000620F3
:1019100010560028F3DA009B002B05D05A46314BB5
:101920001A602E4B1A60B2E75A462D4B1A60AEE78A
:1019300006201856002822DB4200111889007C1866
:101940008846A1689960E179D9710621615699713B
:10195000A1797F291FD8A488F91A64052415444465
:101960000919E0240905490D240221439980121820
:101970001D4B9200BF181A781870BA71CBE7019806
:1019800000280BD1FF30907118489080164A1078CB
:1019900011709871BFE7BD210902E7E7144A1549A4
:1019A000D21A083A5002400D014399801249520858
:1019B0000A43DA80AFE70620105613000028BBDA8E
:1019C000019A002AEAD14546E0E7C046240100D04A
:1019D00000ED00E0CD0100107402002000E100E005
:1019E00080E100E080E200E0B90C002000BDFFFFD4
:1019F000AE02002000F0FFFF00F8FFFFAAAA0000DF
:101A0000F8B5012504000543FEF72DFC0200EFF3B5
:101A1000108672B621490B68002BFCD0BFF35F8F94
:101A20001F492000401A4041224B43431B0D1D48D3
:101A3000920087685BB2BF58AF421CD006228A561C
:101A40009A421CD012228A569A4222D01E228A56CC
:101A50009A4220D02A228A5603209A4210D0124A53
:101A600011781370A171BFF35F8F00220B4B1A60C6
:101A700086F31088F8BD81680C488850EFE7002095
:101A80004200121892008918FF228A71084A8A803F
:101A9000E5E70120F4E70220F2E7C046240100D088
:101AA0007402002000ED00E0B90C0020CD01001010
:101AB00000BDFFFFAAAA0000F0B500220324FF2703
:101AC000802620003D00094B11009C461040C000BC
:101AD0008540A14361440B680132AB43350085402A
:101AE0002B430B60202AECD1F0BDC04600E400E09F
:101AF00010B5002800D110BD00F036FCFBE7C04651
:101B000010B5094A0300146884B0002C08D00122E3
:101B100000910648524203A9A047012004B010BD1D
:101B200000F030FC0020F9E7840C0020F11A0010CE
:101B300001480421014B1847C0020020611B00101E
:101B4000142310B50100188804331B88984710BD72
:101B5000162310B50100188802331B88984710BD62
:101B6000F0B5C64600B5002916D01423040001259F
:101B700098461827890046184346216818883B88EC
:101B8000984701C4431E984140420540A642F3D104
:101B9000280004BC9046F0BD0125F9E7134A936F75
:101BA0009B0813D210665166002905D0FFE7FFE7B6
:101BB000FFE7516F106F704704B5002801D0002077
:101BC000C04302F099F9002104BDC046936F5B0841
:101BD000FDD3F0B5946ED56E576F166FFFF7E2FF29
:101BE0009466D56657671667F0BD0000000000D008
:101BF00094464E4A926F9208624601D230E0C04647
:101C0000F0B54A4EB56F6D08FCD3346E756E776FC4
:101C1000366F00F025F89446444A146655665767B7
:101C200016676246F0BDC0469446404A926F9208DD
:101C3000624601D258E0C046F0B53C4EB56F6D0823
:101C4000FCD3346E756E776F366F00F04DF89446A6
:101C5000364A14665566576716676246F0BDC04639
:101C6000002B24DB11D000293EDA00B5C9434042E5
:101C700000D1013100F038F8C943404200D10131B0
:101C8000DB43524200D1013300BD002AEBD10028D2
:101C900001D1002905D00020C90FC90701D1C043D7
:101CA000410800B502F020F90022002300BD00B574
:101CB00000290ADBDB43524200D1013300F014F863
:101CC000C943404200D1013100BDC943404200D167
:101CD0000131DB43524200D1013300F005F8DB4310
:101CE000524200D1013300BD002923D1002B18D16D
:101CF000002A0CD0BC460D4F38667A6600210023BE
:101D0000FFE7FFE7FFE77A6F386F67467047002805
:101D100001D00748010000B502F0E6F800220023D8
:101D200000BD02000B00002000217047000000D021
:101D3000FFFFFFFF002B00D0BDE0130C26D1002ACF
:101D4000E7D080B4104F39667A66FFE7FFE730B41A
:101D5000040C7B6F396F1B0423433B66FFE7FFE7EF
:101D6000FFE7C04684B27B6F3D6F1B0423433B6695
:101D7000FFE7FFE7C04600232C042D0C7A6F386F75
:101D800000196941B0BC7047000000D0F0B594461E
:101D90000025140E01D112020835140F01D11201D1
:101DA0000435940F01D192000235D40F01D15200B5
:101DB0000135D40B0134254F7C66254C3C660E0C56
:101DC00093B2FFE7FFE7FFE73C6F6643360C77030C
:101DD000BE467343DF0B5B04C01AB941130C734357
:101DE000DB18C91ACE086643360CB64493B2734367
:101DF0001F0F1B01C01AB941130C73431F0B1B05A6
:101E0000C01AB941860D8F023E436643360C092D38
:101E100024DB520A7243801A7703460A6643360C63
:101E200016235B1BDE40DF40BF1964466643821BFE
:101E30007046043506330100D940A840C01900D3CC
:101E40000131A24206D20023F0BD0000000000D004
:101E5000FFFFFFFF121B0130F3D3F1E709277F1BC0
:101E6000FE406446A2B27243801A00D20139220CAD
:101E70007243130C1204821A99410B007046043508
:101E800013370100F940A840801900D30131002B1D
:101E900002D1A2420AD2F0BD013000D30131121B9F
:101EA000FAD2013BF8D1A24200D2F0BD013000D3FA
:101EB0000131121BF7E7F0B51C0C00D080E00CB428
:101EC00000251C0A04D11B02160E334312020835EA
:101ED0001C0B04D11B01160F3343120104359C0B5C
:101EE00004D19B00960F334392000235DC0B02D1E4
:101EF00092185B4101351C00971864410134464F2C
:101F00007C66464C3C660E0CFFE7FFE7FFE7C046E9
:101F10003C6F6643360C7703BE4697B27743C01BCF
:101F200000D20139C01B00D201399FB27743C91BCF
:101F3000C91B170C77437E04FF0B801BB941CE08E9
:101F40006643360C0C2D33DBB644120B1F053A43A7
:101F50001B0B97B27743C01B00D201399FB2774366
:101F6000C91B170C77433E043F0C801BB941860DFB
:101F70008F023E43664329277F1BFE400C3D774678
:101F8000AF40BF1930BCA2B2ABB272437343801AE8
:101F90009941220C7243130C1204801A99410200D9
:101FA0000B000137001BA941F9D2781E0021F0BDBA
:101FB0000C277F1BFE4077467F0BAF40FF19E0E701
:101FC00000245D1C07D0144F7D663966FFE7FFE7EC
:101FD000FFE7FFE73C6F95B29EB265436643401B47
:101FE000B141150C1E0C6543664336042F0C3E436D
:101FF0002D04401BB141994204D202000B00200085
:102000000021F0BD01D19042F7D3801A99410134EB
:102010009942F2D3F6E70000000000D0FFFFFFFF77
:10202000132370B51D78012D10D00BDD2448FFF768
:102030008FFD244C01008022200000F0CDF8022DFD
:1020400001D070BD1F4C204AA264FAE72E001D4C3F
:102050001D4AA3085B421E401D422FD03300226060
:102060002020B1006118801B0A604A608A60CA6043
:102070000A614A618A61CA610A624A628A62CA6204
:102080000A634A638A63CA630A644A648A64CA64E4
:102090000A654A658A65CA650A664A668A66CA66C4
:1020A0000A674A674008102803D18A67CA67A26492
:1020B000C7E71E339B00E250A264C2E70023CFE7CC
:1020C00053440000C00C0020CD20001007B560462E
:1020D00001880A0A0230DF2AFAD1C9B2820804D381
:1020E000028840880004104300E00068014A505014
:1020F000039007BDC00C002051434343C9188C46D0
:10210000110C83B24B4310B4040C614392B280B201
:10211000504362431C041B0C001910BC59411304AA
:10212000120CC0185141614470470000132310B5D0
:1021300012481C78FFF70CFD0100012C0AD003DDCA
:1021400080220F4800F048F80E48FFF7F9FC0E4BCC
:10215000186010BD0A4C5422200000F03DF80B4BD3
:102160006365A365E36523666366A366E366236729
:102170006367A367E3672362E361E5E75346000013
:10218000C00D00204C330000C00E00209121001033
:1021900007B5604601880A0A0230DF2AFAD1C9B2BF
:1021A000820804D3028840880004104300E00068DD
:1021B000014A5050039007BDC00D00200148042182
:1021C000014B1847D0020020611B0010014B1B6817
:1021D00018470000D0020020014B5B681847000040
:1021E000D0020020F8B54746CE460D0080B5160057
:1021F0000700002A20DD4B1E98461A4B00240020C1
:102200009946002C2BD043461B5D0D3B5A4253414F
:10221000DBB22A5D0A2A13D00134A642F1DC8642E1
:1022200003DD311A3B6828189847AD19013D2B781A
:102230000D3B5A4253413B740CBC90469946F8BD45
:10224000002BE9D1A04203DA211A3B6828189847ED
:10225000484602213B68013498472000DDE73B7C7B
:10226000D7E7C046D4400010F0B557464546DE4695
:102270004E46D023E0B51B061C68374B83B00700E1
:102280000D00180001A990469A4601F03DFE8146D6
:10229000002807D1019B9C4204D0504601F044FE27
:1022A000012399466B1C03D1380001F0DDFD0500C8
:1022B0002A4B1C68002C2FD00A23294E9B4602E093
:1022C000E468002C28D02268002AF9D03368002B5B
:1022D00001D0A342F4D1637C002B2AD02A0039001C
:1022E0002000FFF77FFF4346002BE9D06B465A469C
:1022F0001A71637C002B20D0237C002B26D0012177
:10230000236801A898476B461B790D3B5A425341FD
:102310002374E468002CD6D14B46002B12D1681EE2
:102320008541E8B203B03CBC90469946A246AB4614
:10233000F0BD290038009047D5E70121236801A8A6
:102340009847BDE7504601F0C7FDE8E70221054880
:1023500023689847D7E7C0461C030020FC050020EF
:1023600000060020D440001010B582B06B46040077
:102370000022D81D01210470FFF776FF200002B073
:1023800010BDC04670B5040001F06EFD01220100D1
:1023900005002000FFF768FF084B1C68002C06D0E2
:1023A0006368002B05D09847E468002CF8D128001A
:1023B00070BDE468002CF3D1F9E7C046FC050020AD
:1023C0000D4A1368002B13D0834202D109E09842D2
:1023D00008D01A00DB68002BF9D1002900D0D060AA
:1023E00070471A000029FBD1DB68D360C160F7E7B2
:1023F0000029F5D01060F3E7FC050020F0B50D1EB4
:1024000015DD0E4B0D271A680D4B4519D31859428F
:102410004B410C495B005E5E20210478A64207D048
:1024200093691942FCD101301460A842F5D1F0BD86
:1024300093691942FCD11760F2E7C046B00C002046
:102440000080FCBFBC0C002030B50500002912DD67
:1024500000201024094B013D1A6893691C4208D1E1
:10246000013093691C42FCD113682B548142F4D192
:1024700030BD0028FCD103204042F9E7B00C002019
:10248000E12110B50B4B0C481B780C4B49021B7813
:102490000B4B1860FEF7DEF802210020FDF7F4FF79
:1024A00002210120FDF7F0FF01210648FFF788FF18
:1024B00010BDC046D042001000400340D44200107E
:1024C000B00C0020E0020020F0B5982357464546A6
:1024D000DE464E46414AE0B5D75880243D0085B0DF
:1024E0006402883B25400393274214D00121392000
:1024F00000223B4B25001954597147315A541A7523
:1025000000200132374901F059F88022364B9202FF
:102510001A65364B0393FB060CD480235B011F42E4
:102520003AD1BD4254D105B03CBC90469946A24632
:10253000AB46F0BD294B9A6D002A28D09A462A4B0B
:10254000B946002601259B46170003E06D000136C1
:10255000202E1BD02F42F9D05346DB6D5B466824FA
:1025600001229D6573085C4334239046B243534374
:10257000E4181B4B9C466444200000F045FA0028F8
:102580001AD1AF4301366D00002FE1D14F468023B1
:102590005B01039D1F42C4D00022154900200A7030
:1025A0000E491D430A600132012100F097FF80228D
:1025B0000D4B12031A65B4E74346E2692179002006
:1025C0000093002301F022F8200000F0E9F9D8E799
:1025D000290008487940FEF719FFC0460000115055
:1025E00004060020000010500030115010000100BF
:1025F000B60C00201841001010B501210520FFF78E
:10260000DFF810BD094B10B50122197039210023E4
:102610000748425442714732835403750022002117
:102620003430013300F076FA10BDC046B60C0020FD
:1026300004060020010010B50148FEF7E7FEC04681
:102640002C4100108022024B5202DA647047C046CF
:102650000020115070B5050000F07AF905201F49DF
:10266000FFF7C8F8D0221E4C00212000D200FFF74F
:10267000ADFD00231B4A1C4913701C4A4020116009
:10268000802252006280A280D03AA354184A63701C
:10269000E062E260352613600122A2554C36FF3617
:1026A0002687002620662430265412491248A3604B
:1026B00021612270E38620640360E3633433E254D3
:1026C0000E4B61641A6480229205DA6490220C49F0
:1026D00028009950FFF7B6FF70BDC046C92400100E
:1026E00004060020B60C002080011050880C002049
:1026F0008400105000011050800010500000115054
:10270000101001000B785B0602D14B78052B09D025
:10271000012139200022064B5971195447311A758D
:102720005A547047034B1A78034B1A60F0E7C046BF
:1027300004060020B60C0020000011500A00F8B575
:1027400007234746CE46547910792340D4781B029C
:10275000A40703437F20A20F682480B5897894469C
:102760000840914644433422A046CE0972433D4D71
:102770004244AA184FB21171F943C90FD1704142B6
:1027800041415670907051716246012A5CD0402BD5
:102790005ED834226821724341435218AA181100AE
:1027A000644630310C70D362C100002F3CDB2E4CEC
:1027B0000027A4466144D1600F6000283CD02B4C18
:1027C000C100A44661449160682434224443A44675
:1027D0007243274F62443968AA181161402B00D216
:1027E00040233F22CB18134201D0934340333B6038
:1027F000204B682259404B469C0634230C43A021B1
:10280000734342439B18EB189B6809060C431C60FA
:1028100034235E4334335843673B30182B54012034
:102820000CBC90469946F8BD134C0027A446614461
:10283000D1600F6000280FD1342300227343EB18BE
:102840009A600E4A1A61E3E78022D2009342A0D335
:1028500019000B48FEF7DAFD064CC100A44661449E
:102860009160B1E70406002084001050040010506D
:10287000880C002000001050800010500001105003
:102880004441001010B50C00342011001A00E30977
:1028900058437F23234068245C43044B0019C0182D
:1028A000012300F037F9012010BDC04604060020C6
:1028B00070B57F25342068230D40CC096B436043FD
:1028C0000C4EC01830188378002B05D143785A423B
:1028D0005341094A0133936680220849120100F0EE
:1028E00069F8342101234C4334314D4364193419C0
:1028F000237570BD0406002000201150FFF7FFFF74
:1029000070B57F25342068230D40CC096B436043AC
:102910000C4EC01830188378002B05D143785A42EA
:102920005341094A013393660022084900F042F8F6
:10293000342100234C4334314D4364193419237539
:1029400070BDC0460406002000301150FFF7FFFFA5
:1029500080220E4B520410B51A600D4B0D491A60BF
:1029600010008B689843FBD10B4C9C220021200067
:10297000FFF72CFC8022002152010848FFF726FCBB
:10298000092363670333A36710BDC04600E000401E
:1029900000F0004000C00040000011500000105046
:1029A000002300213222838281548361C361036248
:1029B0008362704710B5C368002901D01C682140AC
:1029C000002A11D08024E400114322420CD01A685E
:1029D00022420BD1094A0A401A60FFE7FFE7FFE7EE
:1029E000FFE7FFE7FFE7C368196010BD4378044ABB
:1029F0009B0081789A580348FEF708FDFFFBFFFF14
:102A0000F40200206C410010F8B5467D0400002E51
:102A100000D168E0C368C0781D68AD05AD0D002821
:102A200043D1E369E918E161A269551A402D2ED816
:102A30006B189B1A5F427B412427DBB22562E3556A
:102A40008A424DD34AD0002823D08022D2002A4384
:102A50006179002902D08020800102430120414099
:102A60006171002B02D08023DB011A43E1680B68FF
:102A70005B053DD4224B13400B60FFE7FFE7FFE708
:102A8000FFE7FFE7FFE70020E3681A60F8BD402595
:102A9000CEE7A36A2A009C4620696144FFF79CFBAD
:102AA00084221202E35D2A43D2E7E269A36A9446D4
:102AB0006344180021692A00FFF78EFBE369E07880
:102AC000E918E1610028AFD0236A9D42ACD200230F
:102AD000012223622433A161E254D7E73000D5E715
:102AE0000848FEF793FC8178074A0848FEF78EFCF9
:102AF0006378054A9B00A1789A580548FEF786FC42
:102B0000FFFBFFFFB8410010F40200208C410010D1
:102B10006C41001070B50400002B49D0437D002BA0
:102B200003D000230375322023540023A261E36104
:102B3000151C402A31D80123ADB2521B6375534294
:102B40005341242625220020DBB22562A162A35531
:102B5000A054E278002A22D08022D2002A43617950
:102B6000002902D080208001024301204140617190
:102B7000002B02D08023DB011A43E1680B685B0560
:102B800019D4114B13400B60FFE7FFE7FFE7FFE7A6
:102B9000FFE7FFE7E3681A6070BD4025CBE72A0036
:102BA0002069FFF719FB84221202A35D2A43D6E7AE
:102BB000FFF72AFFF0E76378044A9B00A1789A5850
:102BC0000348FEF723FCC046FFFBFFFFF402002092
:102BD0006C410010024B5878431E9841C0B27047B8
:102BE00040050020024B18784007C00F7047C046D0
:102BF00040050020094A10B513785B07DC0F002B55
:102C000005DA182312781340182B02D00024200074
:102C100010BD0020FFF70EFDF9E7C046400500207B
:102C2000F8B5372200212148FFF7D0FA204C2000C8
:102C3000FEF768F91F4B1C601F4C20001830FEF790
:102C40006FF9200001F0EEF81C4B1D4E1D4D1C606D
:102C5000002E04D0280000E000BF1B4B18600024A9
:102C60002B78002E19D0194E174F9C420FD319D133
:102C70003300984701342B78E4B2A342F5D2002008
:102C8000FFF7E8FC0020FFF7B7FC0120F8BDE300E8
:102C90003A681B1B9B009B58EBE700F0E9FE2B7882
:102CA000002BECD000231B68FFDEC046400500204F
:102CB000F804002078050020FC0200207C0500209C
:102CC00000000000B40C002054040020713A0010F1
:102CD000F0B5DE4657464E464546E0B58BB001F0AE
:102CE00005F8002800D122E1B24B07AD9A46B24B5D
:102CF0009B4653461E68B269EFF3108372B61168A3
:102D00000029FCD0BFF35F8FF3612900300000F091
:102D1000F3FFB2690400F369BFF35F8F0021116014
:102D200083F31088002800D101E16B78082BE0D8EC
:102D30005A469B00D3589F466B68002BD9D0A86891
:102D40009847D6E77F2229799C4B0A405400C8094E
:102D50001B191B181800012620304479B443447114
:102D600044790336B4434471002A00D1E6E0944A22
:102D7000DB7C002A06D0934A1278934200D26DE1A0
:102D80009B1ADBB2002B00D0D1E08F4C6A792878F7
:102D9000AB68A047ADE7894B0127984642461B78B0
:102DA00000203B4313702B78994600F079FD602397
:102DB0002E793340602B0DD0402B00D1DAE0F6069F
:102DC000F60E012E00D154E1022E00D110E1002EAA
:102DD00000D1E1E028780021FFF76AFD8021287802
:102DE000FFF766FD85E7794B002B82D000E000BF3E
:102DF0007FE7774B002B00D17BE7704B18780007FB
:102E0000C00F00E000BF74E76E4E6D4A00243378B7
:102E1000002A00D198E06F4FA34208D8A34200D007
:102E200095E00134E4B2A34200D262E7F6D93968F2
:102E3000E2008C46121B920062449269002AF0D094
:102E40002878904701343378E4B2A342E4D250E7C3
:102E50003722002159482F78FFF7B8F91022FF21B7
:102E60005D48FFF7B3F955481222FF211330FFF7F1
:102E7000ADF900F00BFD534E514A00243378002A7F
:102E800000D170E0554A9046524A9146A34245D837
:102E900066D143463800984701343378E4B2A34200
:102EA000F4D24F4B002B00D123E700E000BF20E716
:102EB000424B37229846002118002F78FFF786F9F9
:102EC00043461022D81CFF21FFF780F9404612220A
:102ED000FF211330FFF77AF900F0D8FC394E384A59
:102EE00000243378002A35D03A4A91469C420CD3CC
:102EF00036D13A4B3800984701343378E4B2A342D4
:102F0000F4D242462B799370F3E64A461268E30006
:102F100094461B1B9B0063445B68EBE74A461268C0
:102F2000E30094461B1B9B0063445B68B2E70BB055
:102F30003CBC90469946A246AB46F0BD6A792878DB
:102F4000AB6800F0C1FCD4E6002B00D1D1E6002331
:102F50009B69FFDE380000F095FD3378002BD0D060
:102F600000235B68FFDE380000F08CFD3378002B17
:102F700097D0F5E71B4B002B00D12BE71A48002810
:102F800001D000F08DFC484608A900E000BF040015
:102F9000002C00D0ADE61DE7202B00D19AE0002BDD
:102FA00000D017E76B79092B00D913E70F4A9B0074
:102FB000D3589F467C050020DC41001040050020CE
:102FC00000000000B40C0020993C0010000000003C
:102FD000000000005404002043050020853A001042
:102FE000000000000000000000000000004200108F
:102FF0007F22297A0A400292082A00D9EAE6C80903
:103000000190002B00D182E0002453000293019A2A
:10301000029B94464344C74A6344DB7C002A06D0A3
:10302000C54A1278934200D23BE19B1ADBB2002BD7
:1030300000D02DE1C148C24E00F032FC4846F36892
:1030400008A99847002800D122E160222B791A4272
:1030500000D04EE6002000F023FC4AE6DA00D31A46
:10306000B84A9B001268D318002B00D15FE75C6957
:103070008CE62B7A0F2B00D9ACE6AE4A4344DB78C2
:10308000002A05D0AC4A127893425ED39B1ADBB279
:10309000002B00D09EE6A948A94C00F001FC484650
:1030A000E36808A99847002800D022E660221100B2
:1030B0002B7919401A4200D08CE66B790A2B00D08C
:1030C00088E606AB9A1C11700123484608A900F057
:1030D00081FB0EE62B7A0F2B00D97BE6954A434401
:1030E000DB78002A06D0944A1278934200D202E19B
:1030F0009B1ADBB2002B00D06CE69048904C00F09D
:10310000CFFBE368484608A99847040040E76B797D
:103110000393012B00D1D8E0032B00D1CBE0002B8F
:1031200000D057E65300019A029394464344634407
:1031300020335B7906AA9B07DB0F023213804846D7
:10314000022308A900F046FB61E77E4ADC00E31A8F
:1031500014689B00E418002C00D13BE620699CE732
:10316000EB88012B00D035E6434608221B789343B9
:103170004246484608A9137000F014FBB9E54346DF
:103180000220197806AB9A1C8B0689080140DB0FD8
:103190000B4313804846022308A900F01BFBA8E557
:1031A0004346AA7903925B78002B02D1002A00D013
:1031B000D0E04346039A484608A95A7000F0F2FA54
:1031C00097E5434606AA5B7802321370484601230E
:1031D00008A900F0FFFA8CE5EB88A8791B0A0F2BF1
:1031E00000D9F7E5584A9B00D3589F4608A800F03D
:1031F0005DFB4846A979FFF705FA434602221B7892
:1032000013434246137074E5EB88012B00D0E1E5CF
:10321000434608221B781343AAE74C4B002B00D1EE
:10322000D8E500E000BF040006AB9E1C0222A11CF2
:103230003000FEF7D1FF22004846338808A900F08D
:10324000C9FA002800D054E5C4E5414B002B00D159
:10325000C0E500E000BF021E00D1BBE54846137880
:1032600008A900F0B7FAECE72989FDF77FF8021EFC
:10327000F4D1AFE5FDF776F8041ED5D1AAE5FDF748
:103280006DF81223020008A9484600F0A3FAD8E717
:1032900060222B791A4200D07AE6002000F000FB71
:1032A00076E6284ADE00F31A16689B00F618002E10
:1032B000EED03069C0E6EB88002B27D05300029394
:1032C000484608A900F06EFAA1E6EB88002BF5D17C
:1032D0004846FFF715FB019A029B94465B00029358
:1032E0004344634420335A790399B2435A715A795B
:1032F0008A435A71E4E7134ADC00E31A14689B001E
:10330000E418002C00D165E52069F8E64846FFF78F
:10331000CFFA019A02219446029B5B000293434438
:10332000634420335A790A435A715A7917435F71BB
:10333000C6E7C04600000000B40C0020593C001055
:1033400068420010540400202842001000000000D1
:1033500000000000501EC0B2FDF704F8002800D1A4
:1033600038E54378022B00D034E50121C27906000C
:10337000931152110B400A4012015B011343424664
:1033800012782F318A43134342461370C3788278F0
:103390001B021343C31809360493049BB34200D89D
:1033A00088E00023727802930B2A04D133780296C6
:1033B000F3181E005A78042A00D00BE5049B424AF9
:1033C0009B1B9BB20193414B00241B78002A10D118
:1033D0001CE09C4226D13E4B31004846019A98475A
:1033E000002822D1394B01341B78E4B2A34200D229
:1033F000F0E49C42EDD2374B1B680593059AE3003D
:1034000094461B1B9B0063449B68E5E731004846DC
:10341000019A00F041FB071E53D12C4B1B78002B67
:1034200000D1D7E400239B68FFDE0700082F00D8F7
:10343000D0E4019BBB4200D2CCE44246B378D21820
:10344000D178FF2900D0C5E4D470029A002A15D0A3
:1034500091781000994200D0BCE4127973799A42B5
:1034600000D0B7E4C278012A08D9023A04314144B5
:10347000D2B2080001322100FEF7A8FE7F213200FF
:1034800000238C465178052907D161469078014088
:10349000490041441331C0090C5411785B189BB2A8
:1034A0005218BB42EED3094BF6191B78A34200D346
:1034B00073E78FE4084B002B00D17AE600E000BFF1
:1034C00077E6014CB2E7C04600000000B40C0020D3
:1034D000993A0010540400200000000030B585B077
:1034E00005000C000C22002101A8FEF76FFE6B46C0
:1034F0001D715C71042C4BD005D8022C30D0032CEC
:1035000024D105B030BD052C20D12A4B1A78D20722
:10351000F7D504211A788A431A70274B1C68A269D0
:10352000EFF3108172B61368002BFCD0BFF35F8FEE
:10353000E161200001A900F033FCA269E369BFF357
:103540005F8F0021116083F31088DAE71A4B1C6843
:10355000A269EFF3108172B61368002BE6D1FBE786
:103560000121144B1A788A431A701A780331A24346
:103570001A7000225A701A788A431A700E4B1C680F
:10358000A269EFF3108172B61368002BCED1FBE76E
:10359000084B1A78D207B4D504211A780A431A7056
:1035A000054B1C68A269EFF3108172B61368002BFB
:1035B000BCD1FBE7400500207C050020002330B58E
:1035C00085B001AD6B8028700633082202A86B70AD
:1035D000FEF702FE0C4B1C68A269EFF3108372B673
:1035E00011680029FCD0BFF35F8FE3612900200040
:1035F00000F0D6FBA269E369BFF35F8F0021116081
:1036000083F3108805B030BD7C050020F0B5C646B8
:10361000804600B584B001AC0F00160000210822DE
:1036200020001D00FEF7D2FD434623700723637080
:103630000F4B65711D682771A660AA69EFF31083AF
:1036400072B611680029FCD0BFF35F8FEB612100D7
:10365000280000F0A5FBAA69EB69BFF35F8F00218A
:10366000116083F3108804B004BC9046F0BDC046DE
:103670007C050020F8B54746D64680B59846089B9D
:1036800006000C00171E9A4621D0002506E052467F
:10369000137023780135E418BD4218DA6378052BDE
:1036A00017D1E1788907890F414512D121003000F7
:1036B000FFF744F800280CD0A378DA09012AE6D1F4
:1036C000099A013513702378E418BD42E6DB012026
:1036D00000E000200CBC90469A46F8BD70B57F24EF
:1036E0000C406300144CC909E41864182034637951
:1036F000DB07DD0F002B18D163795B0701D52800AC
:1037000070BD01210D4E4942306800F005FC63791F
:10371000DB07DD0F002B0AD163795B0708D4042295
:10372000637901251343637102E00025E7E7002573
:10373000306800F0D1FBE2E740050020780500206A
:1037400070B57F240C4065000E4C06006419C80952
:103750002418203465790020ED0700D570BD0125BF
:103760006079284360713000FFF78CF80028F5D1AC
:1037700001226379934363716379033293436371E5
:10378000ECE7C046400500207F22CB090A400449EF
:1037900052008918C91820314879C007C00F7047F6
:1037A0004005002070B50A4E0500082230000C00CC
:1037B000FEF712FD002161560023C943C90F2800FE
:1037C000F3600022C901B360FFF75CF870BDC0462A
:1037D00058040020F8B5CE4647469046294E80B59D
:1037E0008146082230000D001F00FEF7F5FC43461D
:1037F000B3600023F381EC79AB7924021C43231CD2
:10380000BC4200D93B1C9FB2B381002C12D0002FC8
:103810001ED04346002B32D03B1C402F1ED89FB2F7
:1038200033787F2B1FD80021174A3B004846FFF70B
:1038300029F809E0002169560023C943C90F002275
:103840004846C901FFF71EF80CBC90469946F8BDE2
:1038500033787F2B10D980210022E6E740239FB2E6
:1038600033787F2BDFD9084C3A0041462000FEF721
:10387000B3FC80212200D8E700210022D5E70020F8
:10388000E2E7C046580400200005002010B51422CD
:1038900000210248FEF79AFC10BDC04658040020E3
:1038A000014B18617047C0465804002010B5054C04
:1038B000010008222000FEF78FFC0023A360E360D4
:1038C00010BDC04658040020F8B5364D1C002B78BA
:1038D0000600DA09C9098A420CD00027002C01D061
:1038E0003800F8BD304B0137002BF9D02900FEF726
:1038F00009FFF5E77F2B06D8A868002837D02200FB
:103900002A49FEF769FCAB68EA8919191219EB8894
:1039100092B2EA81A960934215D03F2C13D9AC89A9
:10392000A01A071C80B240282DD82B78BFB27F2B5D
:103930002BD80021A24233D01C4A3B003000FEF7B6
:10394000A1FF0700CCE72B69002B04D02900300031
:10395000984700280DD0002169560023C943C90F9C
:1039600000223000C901FEF78DFF0700B8E70027ED
:10397000B6E700213000FEF79BFF80213000FEF704
:1039800097FF0127ACE74027CFE7A24207D0074CBB
:103990003A002000FEF720FC80212200CDE78021A4
:1039A0000022CAE758040020052700100005002067
:1039B0008C2343430B4810B5C0184478FFF70AF92D
:1039C000002801D1002010BDFFF70CF90028F9D123
:1039D000002CF7D021000020FFF7D6FE012358402D
:1039E000C0B2F0E76C040020F0B54746CE4680B583
:1039F00083B06F460E003A70050019000622002BB6
:103A00002FD0B81CFEF7E8FB8C246C43174BA14663
:103A10009846C1444B4600205978FFF75FFE0028C6
:103A20000FD0002E12D108344444230006CF06C321
:103A300008238C2045434544220000206978FFF785
:103A40007FFE03B00CBC90469946F0BD4B4608344F
:103A500044441E7208223900601CFEF7BDFB092396
:103A6000E7E70021B81CFEF7B1FBCDE76C040020AE
:103A700010B58C2200210248FEF7A8FB10BDC046FD
:103A80006C04002010B58C2200210248FEF79EFB3A
:103A900010BDC0466C040020F0B54B7906000D0047
:103AA00083B0032B0AD10879C400241A1234A4B2BB
:103AB000944203D81B4F7B78002B03D000242000B6
:103AC00003B0F0BD882309786918F9504B78212B91
:103AD000F4D10B780200C9187B1C0193BB1C009326
:103AE00030000323FFF7C6FD0028E7D0AB79012B98
:103AF00014D000233B71AB7802223B708823F95825
:103B0000B81D0731FEF768FBB9780029D7D03A0015
:103B1000402330004832FFF713FED0E7EB79FB700B
:103B2000E7E7C0466C0400201F2370B50A78050043
:103B30000C0082B01340012B1AD1404E0979337822
:103B4000994215D1602319001140134208D0202951
:103B50000ED163780B2B0BD8394A9B00D3589F4664
:103B60006378062B04D1E378212B0ED0222B02D0D0
:103B7000002002B070BDFCF707FC21000200F388B2
:103B80002800FFF727FE0120F3E76733F258002AE9
:103B9000EED021001378FFF71DFEEAE7E078A37866
:103BA000000218430138431E9841264BC0B23071C1
:103BB000002B01D000E000BF21002800FFF7F2FD3C
:103BC0000120D6E7E078204B7071002BF4D000E0A4
:103BD00000BF0028F0D1CBE7E379A2791B021343A1
:103BE000402BC5D82100194AFFF7F4FD0120C0E79A
:103BF0006B46DA1D012331795B1A13702100012312
:103C0000FFF7E8FD0120B4E701232100104AFFF788
:103C1000E1FD0120ADE7E379A2790E4E1B021343CB
:103C2000E1783200A078FCF7B3FB031EA0D032008D
:103C300021002800FFF7CEFD01209AE76C04002048
:103C4000844200100000000000000000B4040020C6
:103C5000710400207404002070B50E4A08791378AE
:103C6000984215D16023087801240340202B01D00D
:103C7000200070BD4B78092BFAD1CB798879CD78AB
:103C80001B020343483288782900FCF783FBEFE7E7
:103C90000024EDE76C04002070B50B4C0500A27801
:103CA0008A420ED1260048363200002100209BB205
:103CB000FCF770FB402332002800A178FFF740FD9D
:103CC00070BD0020FCE7C0466C04002070B5064DB6
:103CD0002C78002C01D0200070BDFEF7A1FF002839
:103CE000F9D001232B70F6E7B50C0020014B1878B2
:103CF0007047C046B50C0020F8B5040040690E00BE
:103D0000002803D00121494200F006F9E589208A04
:103D1000A9B22A1A83B292B2854202D26089121ADB
:103D200092B2A088A789904205D20A1ABA422BDC27
:103D300092B222820200002A2ED0BB4206D96189AB
:103D40005B189BB2984203D81B1A9BB29842FBD9CE
:103D5000E288216853433000C918FEF73DFA012577
:103D600001200122A789218A8BB20918B94210DDEE
:103D700061895B18D3189BB260692382002801D047
:103D800000F0AAF82800F8BD628982188A1A92B257
:103D9000CFE79B189BB2EFE700200025E3E7C04682
:103DA000F8B5040040690E00002803D00121494203
:103DB00000F0B2F8E289218A95B2531A9BB291427F
:103DC00002D962899B1A9BB2A2889A4226D0A18905
:103DD0002B00A94206D26389EB189BB29A4203D802
:103DE0009B1A9BB29A42FBD9E28821685343C818B8
:103DF0003100FEF7F1F9A389AB420AD90135ADB222
:103E000060690127E581002801D000F065F83800DD
:103E1000F8BD6389ED180135ADB2F1E7277A002FBF
:103E2000D5D1F4E710B50400406900280DD0012178
:103E3000494200F071F800236069E3812382002881
:103E400001D000F049F8012010BDE0812082FAE79E
:103E500010B5FCF715FB1920FCF72EFBD0238022B0
:103E60001B0692045A6210BD10B5830727D0037851
:103E7000002B26D00300032102E01A78002A1CD070
:103E800001330B42F9D119680F4A104C8A188A4342
:103E900022420FD1043319680B4A8A188A432242FE
:103EA00008D104331968084A8A188A432242F1D09B
:103EB00000E001331A78002AFBD1181A10BD030064
:103EC000E1E70020FAE7C046FFFEFEFE808080802A
:103ED000F8B5C0460000000001B40248844601BCA9
:103EE000604700BFED01002001B40248844601BCD8
:103EF000604700BF1502002001B40248844601BC9F
:103F0000604700BF1502002001B40248844601BC8E
:103F1000604700BF0D01002001B40248844601BC87
:103F2000604700BF5501002001B40248844601BC2F
:083F3000604700BFC100002042
:103F380009022900010100800709040100020300A9
:103F4800000009211101000122900007050103402A
:103F5800000F0705810340000F0000001201100147
:103F680000000040FECACDAB0000000100010000C7
:103F780005010906A1018501050719E029E71500D2
:103F880025019508750181029501750881010507CC
:103F9800190029FF150025FF9506750881000508F9
:103FA800190129059505750191029501750391017E
:103FB800C005010902A10185020901A1000509192D
:103FC80001290515002501950575018102950175E1
:103FD8000381010501093009311581257F95027595
:103FE80008810609381581257F9501750881060520
:103FF8000C0A38021581257F950175088106C0C015
:10400800040300001003520061007300700069008F
:1040180063006F004E6F207370696E6C6F636B7313
:104028002061726520617661696C61626C6500006F
:10403800486172647761726520616C61726D2025D8
:104048006420616C726561647920636C61696D6577
:10405800640000000A2A2A2A2050414E4943202A97
:104068002A2A0A00486172642061737365727400B9
:1040780052656C6561736500626F6F74325F773289
:104088003571303830000000312E312E30000000FC
:104098007069636F00000000686964004D617220F8
:1040A800203820323032310006005250BBFF3CB677
:1040B8009840001006005250E182887F804000102E
:1040C80006005250D3F07542784000100D0A0000E7
:1040D8005541525420737464696E0000554152541E
:1040E800207374646F75740055415254207374645E
:1040F800696E202F207374646F7574000600525027
:1041080053B4F4A1F040001008005250920000008F
:10411800556E68616E646C65642049525120307830
:1041280025780A006463645F72656D6F74655F77F4
:10413800616B6575702025640A00000049736F6320
:1041480068726F6E6F757320774D61785061636B1D
:10415800657453697A6520256420746F6F206C61DB
:104168007267650065702025642025732077617368
:1041780020616C726561647920617661696C616245
:104188006C65000043616E277420636F6E74696EFE
:1041980075652078666572206F6E20696E6163743C
:1041A800697665206570202564202573000000006D
:1041B8005472616E73666572726564206D6F7265A4
:1041C8002064617461207468616E2065787065632D
:1041D80074656400F22C0010B02E0010502E0010F0
:1041E800082E0010F22D0010E62D0010962D00105C
:1041F800442D0010382D00107E3100106031001061
:10420800D42D001008320010D42D0010EC3100100D
:10421800D8310010D42D0010C2310010A031001088
:10422800D42D00107E320010743200106832001055
:10423800D42D0010D42D00104A320010D42D0010B7
:10424800D42D0010D42D0010D42D0010D42D001022
:10425800D42D0010D42D0010D42D00101A320010C7
:10426800713A0010853A0010993A0010293B001065
:10427800593C0010993C001000000000703B0010F1
:10428800163C0010083C0010F03B0010703B00107A
:10429800703B0010703B0010703B0010703B00102A
:0C42A800D83B0010C43B00109C3B0010F1
:1042B400B4020010A80200109C020010B0400010CC
:1042C40090020010BC400010C840001004410010CF
:0442D4001041001085
:1042D80010B502680024EFF3108172B61368002B42
:1042E800FCD0BFF35F8F03797F2B0BD80368BFF334
:1042F8005F8F1C6081F3108820BF0268EFF3108184
:1043080072B6EBE7D0231B061B6803710368BFF383
:104318005F8F00221A6081F3108810BD030010B56A
:104328000068EFF3108472B60268002AFCD0BFF36D
:104338005F8F04229A56002A0BDB00290FD0002039
:104348000A601B68BFF35F8F00221A6084F310882D
:1043580010BDD0221206126801201A71F1E7002060
:10436800EFE7C046F0B5C64600B50C00804600F041
:1043780063F8FA2206000F002000002300219200B3
:1043880000F062F88019794104000D008F4230D89E
:104398002DD0002643461A68EFF3108372B61168D1
:1043A8000029FCD0BFF35F8F424612797F2A0ED8CE
:1043B80042461268BFF35F8F166083F310882000AF
:1043C800290000F031F80028E4D000200CE0D022C9
:1043D8004146120612680A710A68BFF35F8F00210E
:1043E800116083F31088012004BC9046F0BD86421A
:1043F800CFD901246442E517CBE7C0460268EFF342
:10440800108172B61368002BFCD0BFF35F8FFF23B7
:10441800037140BF0368BFF35F8F00221A6081F306
:10442800108870477047C04601B40248844601BCF2
:10443800604700BFF50A001001B40248844601BC79
:10444800604700BF390D001001B40248844601BC22
:10445800604700BFF920001010000000640200202F
:104468000000000038030020BC0500200000000008
:1044780000000000CC050020000000000000000043
:104488001000000000000000000001000000000013
:104498000000000000000200000000000000000012
:1044A8000000030000000000000000000000FF0002
:1044B8000000000000B5486801318E46004770468C
:1044C80009380149884700BD011A001000000000A2
:1044D800503300004C3300005433000052330000C6
:1044E8004D5300004D430000533400004334000096
:1044F800FD23001000000000492400100000000007
:104508000001000000410010E0400010C40E00202F
:1045180010000C0000000000000000000000000077
:104528000000000000000000000000000000000083
:1045380000000000BD210010311B001021200010D8
:084548002D21001039030010C1
:04000005100001E9FD
:00000001FF
